:100000000C94AA220C94DB220C94DB220C94DB22AD
:100010000C94DB220C94DB220C94DB220C94DB226C
:100020000C94DB220C94DB220C94DB220C94DB225C
:100030000C94DB220C940EB20C94DB220C94DB2289
:100040000C94DB220C944CB40C94DB220C94DB2239
:100050000C94DB220C94DB220D94D5310C94AAB1C4
:100060000C94DB220C94F6450C94EC450C94DB22AA
:100070000C94DB220C94DB220C94DB220C94DB220C
:100080000C94DB220C94DB220C94DB220C94DB22FC
:100090000C94DB220C94DB220C94DB220C94DB22EC
:1000A0000C94DB220C94DB220C94DB220C94DB22DC
:1000B0000C94DB220C94DB220C94DB220C94DB22CC
:1000C0000C94DB220C94DB220C94DB220C94DB22BC
:1000D0000C94DB220C94DB220C94DB220C94DB22AC
:1000E0000C94DB22A5E862E79BE7E1E89BE79BE74E
:1000F0009BE79BE79BE79BE79BE79BE79BE79BE7F0
:100100009BE79BE79BE79BE79BE79BE79BE79BE7DF
:100110009BE79BE79BE79BE79BE79BE79BE79BE7CF
:10012000DBE89BE79BE79BE79BE79BE79BE79BE77E
:100130009BE7B4E89BE79BE79BE79BE79BE79BE795
:100140009BE79BE79BE79BE7F8E898E75A01580194
:10015000B201AE016001F60106020201B401FE0027
:10016000FA01980230022601F6013401B8010401B7
:1001700084028C014E02BE01DE015402F0017A01BC
:10018000260216010C022401F2018A0254024C02DA
:1001900088019A017E025002BC028C025601C801FD
:1001A0009A02520134027E0138011A01084AD73BF3
:1001B0003BCE016E84BCBFFDC12F3D6C74319ABD36
:1001C00056833DDA3D00C77F11BED9E4BB4C3E915A
:1001D0006BAAAABE000000803F05A84CCDB2D44E49
:1001E000B93836A9020C50B9918688083CA6AAAA4B
:1001F0002ABE000000803F000D94881C0D94FF393A
:100200000C94D7AA0D94F5390D941F3A0C94899744
:100210000D94E71B0D94941C0C9481970D946F2101
:100220000D941F600C9488700C9412BD0D94583C72
:100230000C94E1BC0D9477400C9431BE0D94EC1BF2
:100240000C9428930C942CA90D946C3C0D94113AA9
:100250000D943B230C94A5690C948D970C946CFC25
:100260000D94B8200C949A700D94173A0C94A670C3
:100270000D9474400C94E7BC0C9470AC0C94C6675D
:100280000D94BE200C946DEB0C94FAC30D94D81B06
:100290000D9473210D944A1A0D9429350D943D60E7
:1002A0000C941BBD0D947A400D948E1C0D946840E7
:1002B0000D94ED390D94EA390C941C680C9462E7A6
:1002C0000D94E6390C9400AC0C94E3700C94256802
:1002D0000C941D950C949F4C0D9471210C9464C04A
:1002E0000D9417350C9486680C9479970D946C2BAB
:1002F0000C94E1E80D94463C0C94E7B30D948C40CB
:100300000C94DDAA0D9424270C94EA930D94772184
:100310000D94993C0C9489670D941B3C0C94F3BC90
:100320000C94DCA80C94A9660C9476700C94186755
:100330000C9430A90D94A33C0D94BD110D94631C35
:100340000C9477680C94179A0D94B3340C948FAA7C
:100350000C9476670C949EAB0C947AB10D94E039B2
:100360000C9475AA0D94DC390D94FB390C94F8E8C3
:100370000D941B3A0D94681C0C9409930D942A3C1F
:100380000D94521A0D94E4370C940D680D94E21BF1
:100390000D946B400C9470700C94D4700C9433E4F6
:1003A0000C9431670C9421BD0C947B660C94E2662E
:1003B0000C94C5700C941DBE0C9462680D94343C72
:1003C0000C94FE670C9418B00C94F2670D94752190
:1003D0000C9480FC0C9463670D9436260D945E1C7F
:1003E0000D943E3C0D947B3C0C9475970D94243AEF
:1003F0000C94FE950D94033A0D94821C0C946D9709
:100400000D9427270C9423C00C94A5E80D94F13982
:100410000D945E1E0C9464700D94623C0D943F1A12
:100420000D94F31C0C9451AC0C9498E70C948E70C2
:100430000D94BC200C940E9B0C94E4660C9469976C
:100440000C9421AC0C9492660C9485AE0D944E3CA9
:100450000C94FBE60C9434800C94EC5A0C94859725
:100460000D940D3A0C944A670D9471400C94719759
:100470000C94A2670D944C1A0C9498830D94A01FB1
:100480000C9444EB0C9462800D9419350C947C70A0
:100490000C948F940C94B4670D948F3C0D94203C75
:1004A0000D945F400D94BA200D94AD3C0C945EAA5F
:1004B0000C9409E40C94D9670C949E680C94E95A46
:1004C0000C949BE70C9438C20C94376B0C9479BC59
:1004D0000C94FF660D94B6200C9439930C9492689A
:1004E0000C9450B10C94A1690C94E85A0C94A0702F
:1004F0000C94B4E80D9421270C9402A90D947F402C
:100500000C947D970D94502A0D94163C0D949034C4
:100510000C9482700D94853C0D9462400D94DD1B0B
:100520000C94B8C00D941F280C9494700C943193C3
:100530000D94093A0D946E400C9491970C94A2F48A
:100540000C940FE40D94151B0C94C0C00C940CE497
:100550000C94DBE80C9421A90D94C0350C94BE6A70
:100560000C942ABF0C94176E0D94AD2C0C946A70E9
:100570000C94C2800C948FAC0D9465404E414E4952
:100580004E495459494E46CDCCCC3D0AD7233C1751
:10059000B7D13877CC2B329595E6241FB14F0A009E
:1005A0000020410000C84200401C4620BCBE4CCA8E
:1005B0001B0E5AAEC59D7400407A10F35A00A0720B
:1005C0004E18090010A5D4E80000E876481700008E
:1005D000E40B54020000CA9A3B000000E1F505005C
:1005E0000080969800000040420F000000A08601A5
:1005F000000000102700000000E803000000006475
:1006000000000000000A00000000000100000000DF
:10061000002C76D888DC674F0823DFC1DFAE59E1B4
:10062000B1B796E5E3E453C63AE651997696E8E623
:10063000C28426EB898C9B62ED407C6FFCEFBC9CF6
:100640009F40F2BAA56FA5F490055A2AF75C936B08
:100650006CF9676DC11BFCE0E40D47FEF520E6B5C3
:1006600000D0ED902E0300943577050080841E089D
:100670000000204E0A000000C80C333333330F98BB
:100680006E12831141EF8D2114893BE65516CFFE82
:10069000E6DB18D1844B381BF77C1D901DA4BBE40E
:1006A00024203284725E228100C9F124ECA1E53D50
:1006B00027434F4D4D554E49434154494F4E0044F9
:1006C000525952554E004552524F525300494E46D0
:1006D0004F004543484F0047322F47332062616443
:1006E00020706172616D65746572730A0057617282
:1006F00074656E2E2E2E005A2050726F6265205047
:10070000617374204265640A005A2D536F6E6465EC
:10071000206175C39F657268616C6200486F6D658A
:100720002058592066697273740A00566F726865A2
:100730007220585920686F6D656E004D6573682092
:10074000706F696E742063616E6E6F7420626520D5
:100750007265736F6C7665640A004B6C69636B201D
:100760007A756D20466F72747365747A656E004D8C
:100770006F746F72656E20616E6765736368616C1C
:1007800074657400456E642066696C65206C6973DD
:10079000740A00426567696E2066696C65206C6941
:1007A00073740A00286E6F2066696C6529004375B2
:1007B0007272656E742066696C653A20005344203D
:1007C0007072696E74696E67206279746520004E7C
:1007D0006F74205344207072696E74696E670A00EA
:1007E0005072696E742074696D653A2000496E76A6
:1007F000616C69642050696E204D6F64650A000A5F
:1008000053746174733A2046696C616D656E74202F
:10081000757365643A20002C204C6F6E67657374A5
:10082000206A6F623A2000546F74616C2074696DA5
:10083000653A20002C204661696C65643A20002CE2
:100840002046696E69736865643A20005072696E6B
:1008500074733A200053746174733A200045202564
:1008600053006F66660044454255473A004D3131AA
:10087000322053687574646F776E004D31313320C8
:10088000530042657474206BC3BC686C742E2E2EAA
:100890000042657474206865697A742E2E2E0047B4
:1008A000656565746563682041323054204F464663
:1008B0002E004348414D4245525F54454D504552EC
:1008C0004154555245004D4F54494F4E5F4D4F4492
:1008D000455300544845524D414C5F50524F54458A
:1008E0004354494F4E004155544F5245504F525476
:1008F0005F53445F5354415455530050524F4D5031
:10090000545F535550504F525400454D4552474542
:100910004E43595F50415253455200434153455F46
:100920004C494748545F4252494748544E455353F7
:1009300000544F47474C455F4C4947485453005378
:100940004F4654574152455F504F5745520042550C
:10095000494C445F50455243454E54004C45564522
:100960004C494E475F44415441005A5F50524F42F8
:1009700045004155544F4C4556454C005052494E48
:10098000545F4A4F420050524F4752455353004123
:1009900055544F5245504F52545F54454D50005698
:1009A0004F4C554D455452494300454550524F4DCB
:1009B0000042494E4152595F46494C455F545241AD
:1009C0004E534645520053455249414C5F584F4E95
:1009D0005F584F4646004649524D574152455F4E7B
:1009E000414D453A4D61726C696E20322E302E3584
:1009F0002E3420284769744875622920534F555278
:100A000043455F434F44455F55524C3A6874747098
:100A1000733A2F2F6769746875622E636F6D2F4D5F
:100A200061726C696E4669726D776172652F4D6196
:100A3000726C696E2050524F544F434F4C5F564575
:100A40005253494F4E3A312E30204D414348494E82
:100A5000455F545950453A4765656574656368203C
:100A6000413230542045585452554445525F434F0B
:100A7000554E543A3120555549443A36316636651B
:100A80003962332D656135342D343661392D623646
:100A900064652D3834343639623462323037610A55
:100AA000002F2F20004D31343520533C696E646592
:100AB000783E206F7574206F662072616E676520C6
:100AC00028302D31290A00416363656C65726174B9
:100AD000696F6E3A20500046523A0020466C6F779C
:100AE0003A200050726F7465637465642050696EBB
:100AF0000A0020643A0020693A0020703A006469D4
:100B0000730043290A0061626C656420286D696E78
:100B10002074656D702000436F6C6420657874727A
:100B20007564657320617265200046696C616D654E
:100B30006E742072756E6F757420004D34323120E2
:100B4000696E636F727265637420706172616D6546
:100B50007465722075736167650A00486F6D65760C
:100B600065727361747A20616B7469760045727284
:100B70003A20546F6F206661722100546F6F2066B7
:100B800061722066726F6D207265666572656E6354
:100B90006520706F696E740A00454550524F4D20B4
:100BA0004F4B0A002028302D313029002076616C0F
:100BB0007565206F7574206F662072616E676500C1
:100BC000416476616E6365204B3D00506F776572BE
:100BD0002D6C6F7373207265636F76657279200078
:100BE000446F6E65207072696E74696E6720666905
:100BF0006C650A004D3737004D333100D206CD0603
:100C0000C606BF06B1064572726F722077726974AC
:100C1000696E6720746F20454550524F4D210A0080
:100C2000627573793A2070617573656420666F72BE
:100C300020696E7075740A00627573793A2070616C
:100C40007573656420666F7220757365720A006241
:100C50007573793A2070726F63657373696E670A92
:100C6000004D36303000414E474548414C54454ECA
:100C7000005072696E7465722073746F7070656471
:100C80002064756520746F206572726F72732E20F8
:100C900046697820746865206572726F7220616E93
:100CA0006420757365204D39393920746F20726561
:100CB00073746172742E202854656D70657261744E
:100CC0007572652069732072657365742E20536593
:100CD0007420697420616674657220726573746132
:100CE0007274696E67290A004E6F20436865636BF2
:100CF00073756D2077697468206C696E65206E75F8
:100D00006D6265722C204C617374204C696E653A7B
:100D10002000636865636B73756D206D69736D6129
:100D20007463682C204C617374204C696E653A20A2
:100D3000004C696E65204E756D6265722069732086
:100D40006E6F74204C617374204C696E65204E7513
:100D50006D6265722B312C204C617374204C696E6E
:100D6000653A20004D313130005344207265616492
:100D7000206572726F720A002121204B494C4C2071
:100D800063617573656420627920746F6F206D757F
:100D9000636820696E6163746976652074696D6546
:100DA000202D2063757272656E7420636F6D6D61A6
:100DB0006E643A20004269747465206E65757374C0
:100DC000617274656E00445255434B45522047454D
:100DD00053544F5050540025533A2025530041425C
:100DE000474542524F4348454E005072696E746504
:100DF000722068616C7465642E206B696C6C2829A4
:100E00002063616C6C6564210A006563686F3A0059
:100E10004572726F723A0042696C696E6561722048
:100E20004C6576656C696E6720477269643A0A00A2
:100E3000252723181F211D1C19171B1E2E2C0C31B2
:100E40002F302B2D2904400AFF4104090807000117
:100E50004732362048656174696E67204E6F7A7A32
:100E60006C6500473236206865697A742042657483
:100E7000740057616974696E6720666F72206865D7
:100E8000617475702E0A004665737465204CC3A4A6
:100E90006E6765205072696D65005072696D696E8C
:100EA0006720666572746967004D616E75616C20BC
:100EB0007072696D696E672E2E2E00473236206182
:100EC00062676562726F6368656E004732362076CE
:100ED00065726C617373656E003F5370656369661C
:100EE00069656420582C5920636F6F7264696E6164
:100EF0007465206F7574206F6620626F756E647301
:100F00002E0A003F28522965706561742076616C55
:100F10007565206E6F7420706C61757369626C65A5
:100F20003B206D757374206265206174206C65616F
:100F3000737420312E0A003F5370656369666965DA
:100F400064206E6F7A7A6C652074656D706572616D
:100F500074757265206E6F7420706C617573696250
:100F60006C652E0A003F537065636966696564208D
:100F700066696C616D656E742073697A65206E6F49
:100F80007420706C61757369626C652E0A003F5342
:100F90007065636966696564207072696D65206C4F
:100FA000656E677468206E6F7420706C617573690C
:100FB000626C652E0A003F537065636966696564FB
:100FC000206E6F7A7A6C652073697A65206E6F7413
:100FD00020706C61757369626C652E0A003F526502
:100FE0007472616374696F6E204D756C7469706C96
:100FF000696572206D757374206265207370656316
:1010000069666965642E0A003F53706563696669A5
:1010100065642052657472616374696F6E204D75EA
:101020006C7469706C696572206E6F7420706C618D
:10103000757369626C652E0A003F5370656369665B
:10104000696564206C617965722068656967687498
:10105000206E6F7420706C61757369626C652E0A06
:101060000043292E0A003F53706563696669656411
:10107000206265642074656D706572617475726557
:10108000206E6F7420706C61757369626C652028C6
:1010900034302D00473236207374617274696E6784
:1010A0002E2E2E0A00656E7175657565696E672056
:1010B00022006F6B00526573656E643A20002569EB
:1010C0007920256964202569682025696D202569B6
:1010D000730023646566696E652044454641554C3E
:1010E000545F004B6420004B6920004B702000507F
:1010F0004944204175746F74756E652066696E6928
:1011000073686564212050757420746865206C6173
:101110007374204B702C204B6920616E64204B64EB
:1011200020636F6E7374616E74732066726F6D20CE
:1011300062656C6F7720696E746F20436F6E6669AD
:101140006775726174696F6E2E680A005049442099
:101150004175746F74756E65206661696C65642194
:101160002074696D656F75740A000A20436C6173A1
:1011700073696320504944200A00204B643A2000E0
:10118000204B693A2000204B703A20000A204E6F15
:10119000206F76657273686F6F740A002054753A19
:1011A0002000204B753A2000206D61783A20002005
:1011B0006D696E3A200020643A20002062696173F4
:1011C0003A2000504944204175746F74756E652053
:1011D00073746172740A00504944204175746F74CD
:1011E000756E65206661696C6564212054656D705B
:1011F0006572617475726520746F6F2068696768C5
:101200000A00504944204175746F74756E652066FC
:1012100061696C656421204261642065787472752F
:10122000646572206E756D6265720A004572723A6D
:10123000207574663820666F6E74206E6F74206936
:101240006E697469616C697A65642E00000C0D002A
:10125000FE07022603BC01FFFE0AFE08FE05080881
:1012600006000040F0C88888987810050808060035
:1012700000C0F88888888888F805050506000120E0
:1012800030F830200508080600002070F8202020E3
:1012900020E00509090600FF2070A8A8B88888701A
:1012A00020050606060001E08CEA8C8A0A05090979
:1012B0000600FFF8A88888888888A8F8050A0A0622
:1012C00000FE205050505088A8A8887003030306E1
:1012D000000340A040FFFFFFFFFFFFFFFFFFFFFFF6
:1012E000FFFFFFFFFFFFFFFFFFFFFF0000000605FE
:1012F000FF010707060200808080808000800303D2
:1013000003060105A0A0A005060606000050F8503F
:1013100050F8500509090600FF2070A8A07028A801
:101320007020050707060000C8C8102040989805DF
:10133000070706000040A0A040A89068010303062C
:1013400002058080800309090601FF20404080805B
:10135000804040200309090601FF804040202020F2
:1013600040408005070706000020A8702070A820D4
:101370000505050600012020F820200203030601D0
:10138000FFC04080050101060003F80202020601C9
:1013900000C0C0050707060000081010204040806C
:1013A000050707060000708898A8C888700307071B
:1013B00006010040C040404040E00507070600002D
:1013C000708808102040F8050707060000F808108C
:1013D0003008887005070706000010305090F8109C
:1013E00010050707060000F880F008088870050758
:1013F00007060000304080F0888870050707060067
:1014000000F808101020202005070706000070884B
:10141000887088887005070706000070888878083B
:101420001060020505060100C0C000C0C00206062B
:101430000601FFC0C000C040800305050601012071
:1014400040804020050303060002F800F80305056C
:1014500006010180402040800507070600007088D3
:1014600010202000200507070600007088B8A8B8E3
:101470008070050707060000708888F8888888054E
:101480000707060000F04848704848F005070706BF
:10149000000070888080808870050707060000F0D3
:1014A0004848484848F0050707060000F88080F0E3
:1014B0008080F8050707060000F88080F0808080B3
:1014C0000507070600007088808098887005070768
:1014D000060000888888F8888888030707060100C6
:1014E000E04040404040E00507070600003810108B
:1014F000101090600507070600008890A0C0A0901B
:1015000088050707060000808080808080F8050736
:101510000706000088D8A88888888805070706007D
:10152000008888C8A8988888050707060000708882
:101530008888888870050707060000F08888F08092
:10154000808005070706000070888888A8906805D5
:101550000707060000F08888F0A0908805070706B6
:10156000000070888070088870050707060000F882
:101570002020202020200507070600008888888872
:1015800088887005070706000088888888505020E2
:1015900005070706000088888888A8A8500507075F
:1015A000060000888850205088880507070600003C
:1015B00088885020202020050707060000F8081022
:1015C000204080F80309090601FFE08080808080C8
:1015D0008080E005070706000080404020101008CA
:1015E0000309090601FFE020202020202020E0053B
:1015F00003030600052050880501010600FEF803DC
:10160000030306010580402005050506000070085B
:101610007888780507070600008080F0888888F0C1
:101620000505050600007080808870050707060024
:101630000008087888888878050505060000708805
:10164000F08070050707060000304840E040404049
:101650000507070600FE7088888878087005070768
:101660000600008080F0888888880307070601004C
:101670004000C0404040E00409090601FE1000306F
:1016800010101010906005070706000080808890F9
:10169000E09088030707060100C04040404040E05A
:1016A000050505060000D0A8A8A8A80505050600A0
:1016B00000B0C888888805050506000070888888FD
:1016C000700507070600FEF0888888F0808005070F
:1016D000070600FE78888888780808050505060052
:1016E00000B0C8808080050505060000788070087D
:1016F000F00507070600002020F820202018050527
:101700000506000088888898680505050600008899
:10171000888850200505050600008888A8A850057F
:10172000050506000088502050880507070600FEC2
:1017300088888850204080050505060000F81020A4
:1017400040F80309090601FF204040408040404026
:10175000200109090602FF808080808080808080CF
:101760000309090601FF80404040204040408005B9
:10177000030306000248A890FFFFFFFFFFFFFFFFE3
:10178000FFFFFFFFFFFFFFFFFFFFFFFFFFFFFFFF69
:10179000FFFFFFFFFFFFFFFFFF0000000605FF0147
:1017A000070706020080008080808080050707060A
:1017B00000FF2070A8A0A8702005070706000030D1
:1017C0004840E04048B0050505060000A850885094
:1017D000A80507070600008850F820F82020010718
:1017E00007060200808080008080800408080601CF
:1017F0000070806090906010E0030101060107A076
:101800000607070600007884B4A4B48478030505AD
:1018100006010460A06000E00505050600002850F0
:10182000A05028050303060001F80808030101067B
:101830000103E00607070600007884B4A4A48478B6
:10184000050101060007F8040404060105609090F4
:10185000600507070600002020F8202000F8030597
:101860000506010440A02040E0030505060104C070
:10187000204020C003030306010520408005070720
:101880000600FE88888898E8808005080806000021
:1018900078E8E8E868282828020202060203C0C0A7
:1018A0000302020601FE20C003050506010440C034
:1018B0004040E003050506010540A04000E00505A5
:1018C00005060000A0502850A0050A0A06000040A6
:1018D000C048506050B0507810050A0A0600004019
:1018E000C048506050A8081038050A0A060000C019
:1018F000204830E050B0507810050707060000205F
:10190000002020408870050A0A0600004020007070
:101910008888F8888888050A0A0600001020007068
:101920008888F8888888050A0A0600002050007018
:101930008888F8888888050A0A06000068B0007060
:101940008888F88888880509090600005000708892
:1019500088F8888888050A0A0600002050207088C8
:1019600088F888888805070706000078A0A0F0A0FE
:10197000A0B80509090600FE708880808088701074
:1019800060050A0A060000402000F88080F0808090
:10199000F8050A0A060000102000F88080F0808018
:1019A000F8050A0A060000205000F88080F08080C8
:1019B000F80509090600005000F88080F08080F8E2
:1019C000030A0A060100804000E04040404040E039
:1019D000030A0A060100204000E04040404040E089
:1019E000030A0A06010040A000E04040404040E0F9
:1019F000030909060100A000E04040404040E00526
:101A00000707060000704848E8484870050A0A06BB
:101A1000000068B0008888C8A8988888050A0A0667
:101A2000000040200070888888888870050A0A06AF
:101A3000000010200070888888888870050A0A06CF
:101A4000000020500070888888888870050A0A067F
:101A5000000068B0007088888888887005090906C9
:101A60000000500070888888888870050505060089
:101A70000188502050880509090600FF087098A8C1
:101A8000A8A8C87080050A0A0600004020008888BF
:101A90008888888870050A0A060000102000888857
:101AA0008888888870050A0A060000205000888807
:101AB0008888888870050909060000500088888891
:101AC00088888870050A0A0600001020008888505F
:101AD0002020202004070706010080E0909090E07D
:101AE00080050707060000708890A09088B0050860
:101AF000080600004020007008788878050808066D
:101B0000000010200070087888780508080600009A
:101B1000205000700878887805080806000068B032
:101B200000700878887805070706000050007008E4
:101B3000788878050808060000205020700878880A
:101B400078050505060000702870A07805070706CF
:101B500000FE70888088701060050808060000404C
:101B600020007088F0807005080806000010200032
:101B70007088F0807005080806000020500070880A
:101B8000F0807005070706000050007088F0807034
:101B9000030808060100804000C0404040E0030800
:101BA00008060100204000C0404040E0030808064D
:101BB000010040A000C0404040E0030707060100CC
:101BC000A000C0404040E005090906000050205038
:101BD00008788888887005080806000068B000B09A
:101BE000C88888880508080600004020007088889A
:101BF000887005080806000010200070888888702A
:101C000005080806000020500070888888700508C4
:101C10000806000068B0007088888870050707060D
:101C200000005000708888887005050506000120B6
:101C300000F800200505050600007898A8C8F00502
:101C40000808060000402000888888887005080879
:101C500006000010200088888888700508080600A3
:101C6000002050008888888870050707060000500B
:101C7000008888888870050A0A0600FE10200088FF
:101C80008888502040800509090600FE8080F08881
:101C90008888F080800509090600FE500088888841
:101CA000502040804C6164656E206D6D00456E74FF
:101CB0006C6164656E206D6D0046696C616D656E6A
:101CC0007464757263686D6573736572004520692D
:101CD0006E206D6DC2B3004D333033205531204539
:101CE00025692053256900504944204175746F745B
:101CF000756E65202A005049442D44202A00504921
:101D0000442D49202A005049442D50202A00200803
:101D10002046616B746F72002008206D617800208E
:101D200008206D696E004175746F2054656D706593
:101D3000726174757200486F74656E6420746F6FA1
:101D400020636F6C640A003F4A206F7574206F66D1
:101D50002072616E67652028302E303120746F202C
:101D6000302E33290A00204D393220580020204DD2
:101D700061783A200020204D696E3A2000536F664A
:101D80007420656E6473746F70733A2000252900A7
:101D9000257C00203B2043757272656E74205A00CA
:101DA000203B20456E6400203B2053746172740018
:101DB000202854004772616469656E74204D69780B
:101DC000200020496E76616C69642045207374653B
:101DD00070706572200020452073746570706572A4
:101DE000206E6F74207370656369666965640A00AC
:101DF0004D3630303A207A75206B616C7400507229
:101E000065737320627574746F6E20746F206865DB
:101E10006174206E6F7A7A6C650A00496E73657220
:101E2000742066696C616D656E7420616E642070EB
:101E30007265737320627574746F6E0A004D32346C
:101E40002053256C642054256C64004739322E39A8
:101E50002045257300473120462564004739322E3E
:101E600039205A2573004731205A3020463230300D
:101E700000473120582573205925732046333030D0
:101E800030004D34323020532569205A2573004DDF
:101E90003130362050256920532569004D313039C5
:101EA00020532569004D31393020532569004D32CA
:101EB000303020442573004739322E392045305ABE
:101EC000300A47315A320A47323852305859004D99
:101ED000343230205330205A300020496E76616C05
:101EE0006964206578747275646572200047414D9D
:101EF00045204F56455200107CFEFEFE4440248093
:101F00000000318000002480444004000E000E00D8
:101F10007FC0FFE0FFE0FFE0FFE01FC07FF0DDD803
:101F2000FFF87FF006000F001F8036C03FC0090099
:101F30001680294006000F001F8036C03FC0168063
:101F400020401080104008801FC037607FF05FD0B5
:101F500050500D80104048905FD077707FF01FC0C8
:101F6000104020200F007FE0FFF0E670FFF01980A6
:101F700036C0C0300F007FE0FFF0E670FFF0198040
:101F800036C0198024F4D43050C38E20C2A240172A
:101F9000828B7011127A910D816CD90AA861E108C7
:101FA000C7586607615143061E4B5D05C145A7042E
:101FB0001A411104093D9803713931034036DB029F
:101FC00065339102D4305402802E1D02632CEE0141
:101FD000752AC501B028A001102781018F25640151
:101FE0002B244B01E0223401AC211F018D200D0177
:101FF000801FFC00841EED00971DDF00B81CD2007E
:10200000E61BC600201BBC00641AB200B219A8006F
:102010000A19A0006A189900D117910040178B0087
:10202000B516840031167E00B31579003A15730099
:10203000C7146F0058146A00EE136600881363001B
:1020400025135E00C7125B006C1257001512540076
:10205000C111510070114F0021114B00D6104900E1
:102060008D1047004610440002104200C00F40008F
:10207000800F3E00420F3C00060F3B00CB0E3800A5
:10208000930E37005C0E3500270E3400F30D32003E
:10209000C10D3100900D3000600D2E00320D2D006D
:1020A000050D2C00D90C2B00AE0C2900850C290045
:1020B0005C0C2700350C27000E0C2600E80B2400D2
:1020C000C40B2400A00B23007D0B23005A0B21001E
:1020D000390B2100180B2000F80A1F00D90A1E0036
:1020E000BB0A1E009D0A1D00800A1D00630A1C0019
:1020F000470A1B002C0A1B00110A1A00F7091A00D4
:10210000DD091900C4091900AB091900920917006B
:102110007B091800630917004C09160036091600E0
:10212000200916000A091500F5081500E00814003A
:10213000CC081400B8081400A40814009008130078
:102140007D0812006B0813005808120046081200A0
:1021500034081100230811001208110001081100B1
:10216000F0071000E0071000D0071000C0071000B3
:10217000B0070F00A107100091070E0083070F00A2
:1021800074070F0065070E0057070E0049070E0081
:102190003B070D002E070E0020070D0013070D0052
:1021A00006070D00F9060C00ED060D00E0060C0018
:1021B000D4060C00C8060C00BC060C00B0060C00CF
:1021C000A4060B0099060C008D060B0082060B007E
:1021D00077060B006C060B0061060A0057060B0021
:1021E0004C060A0042060A0038060A002E060A00BB
:1021F00024060A001A060A001006090007060A004B
:10220000FD050900F4050900EB050900E2050900D8
:10221000D9050900D0050900C7050900BE05090058
:10222000B5050800AD050800A50509009C050800D6
:10223000940508008C050800840508007C0508004A
:10224000740508006C050700650508005D050700BA
:10225000560508004E050700470507004005080021
:1022600038050700310507002A0507002305070088
:102270001C050600160507000F05070008050600E7
:1022800002050700FB040600F5040700EE04060043
:10229000E8040600E2040700DB040600D50406009B
:1022A000CF040600C9040600C3040600BD040600EE
:1022B000B7040600B1040500AC040600A60406003D
:1022C000A00405009B040600950405009004060088
:1022D0008A04050085040500800406007A040500D0
:1022E00075040500700405006B0405006604050014
:1022F000610405005C040500570405005204050054
:102300004D04050048040500430405003E04040094
:102310003A04050035040500300404002C040500CF
:1023200027040400230405001E0404001A0404000A
:1023300016040500110404000D040400090405003E
:102340000404040000040400FC030400F803040077
:10235000F4030400F0030400EC030400E8030400A9
:10236000E4030400E0030400DC030400D8030400D9
:10237000D4030400D0030400CC030400C80303000A
:10238000C503030024F404D9201BC40C5C0E98047C
:10239000C4095F0265077101F405F900FB04B3008D
:1023A00048048700C1036900580355000303450032
:1023B000BE023A008402310053022A00290225009D
:1023C00004022000E4011C00C8011900AF0117003D
:1023D00098011400840113007101100061011000C4
:1023E00051010E0043010D0036010B002B010B00C3
:1023F00020010B00150109000C0109000301080070
:10240000FB000800F3000800EB000700E4000600F2
:10241000DE000600D8000600D2000600CC00050051
:10242000C7000500C2000500BD000400B90004009B
:10243000B5000400B1000400AD000400A9000400D0
:10244000A5000300A20003009F0004009B000300FE
:102450009800030095000200930003009000030021
:102460008D0002008B00030088000200860002003D
:1024700084000300810002007F0002007D00020052
:102480007B00020079000200770001007600020064
:102490007400020072000100710002006F0002006F
:1024A0006D0001006C0002006A000100690002007A
:1024B0006700010066000100650001006400020081
:1024C0006200010061000100600001005F00020085
:1024D0005D0001005C0001005B0001005A0001008A
:1024E000590001005800010057000100560001008A
:1024F000550001005400010053000000530001008A
:102500005200010051000100500001004F00010085
:102510004E0000004E0001004D0001004C00010083
:102520004B0000004B0001004A000100490001007F
:10253000480000004800010047000100460000007C
:102540004600010045000000450001004400010074
:10255000430000004300010042000000420001006F
:102560004100000041000100400001003F00000068
:102570003F0001003E0000003E0001003D00000061
:102580003D0001003C0000003C0000003C00010058
:102590003B0000003B0001003A0000003A0001004F
:1025A0003900000039000100380000003800000048
:1025B000380001003700000037000100360000003D
:1025C0003600000036000100350000003500000034
:1025D0003500010034000000340000003400010028
:1025E000330000003300000033000100320000001F
:1025F0003200000032000100310000003100000014
:102600003100010030000000300000003000010007
:102610002F0000002F0000002F0000002F000100FD
:102620002E0000002E0000002E0001002D000000F2
:102630002D0000002D0000002D0001002C000000E6
:102640002C0000002C0000002C0001002B000000DA
:102650002B0000002B0000002B0001002A000000CE
:102660002A0000002A0000002A00010029000000C2
:1026700029000000290000002900000029000100B5
:1026800028000000280000002800000028000000AA
:10269000280001002700000027000000270000009C
:1026A000270000002700010026000000260000008F
:1026B0002600000026000000260001002500000082
:1026C0002500000025000000250000002500000076
:1026D0002500010024000000240000002400000068
:1026E000240000002400010023000000230000005B
:1026F000230000002300000023000000230000004E
:10270000230001002200000022000000220000003F
:102710002200000022000000220001002100000031
:102720002100000021000000210000002100000025
:102730002100000021000100200000002000000016
:102740002000000020000000200000002000000009
:1027500020000000200001001F0000001F000000FA
:102760001F0000001F0000001F0000001F000000ED
:102770001F0001001E0000001E0000001E000000DF
:102780001E00000042270000A11F0000C616000026
:102790009A0E000082080000A30400006D020000F1
:1027A0003E010000576965646572682E206E2E2018
:1027B0005374726F6D612E005A7572C3BC636B00E7
:1027C00046696C616D656E74207765636873656CCE
:1027D0006E004B6F6E66696775726174696F6E002B
:1027E000536E346B3300496E7661646572730042D8
:1027F0007269636B6F757400C39C62657220646557
:102800006E20447275636B657200256C642E2569B9
:102810006D00476573616D742045787472756469E5
:10282000657274004CC3A46E67737465204472753E
:10283000636B7A656974003E2000476573616D744F
:102840006520447275636B7A656974004B6F6D70B7
:102850006C6574746520447275636B6500476573BD
:10286000616D746520447275636B650031353000AD
:102870004245443A4550434F53203130304B00528B
:10288000756E617761792057617463683A204F4EA5
:10289000004D61782054656D7000323735004D6908
:1028A0006E2054656D700045313A204550434F53BA
:1028B000203130304B004E65747A7465696C004786
:1028C000656E657269630050726F746F6B6F6C6CCC
:1028D00000312E30004261756472617465003235DA
:1028E00030303030004754323536302056332E30B9
:1028F0000042696C696E65617265204E6976656C2F
:102900006C2E0047656565746563682041323054FC
:1029100000323032302D30372D3039005370696538
:102920006C6500447275636B65722D5374617469D4
:102930007374696B00546865726D6973746F726546
:102940006E00426F6172642D496E666F004472754D
:10295000636B65722D496E666F004D31303030000B
:1029600053442D447275636B2061626272656368C3
:10297000656E0053442D447275636B20666F7274EC
:102980007365747A656E0053746F70004D32310058
:102990004D656469756D20676574617573636874EE
:1029A000004B65696E204D656469756D004A7573ED
:1029B00074696572756E6700447275636B20697324
:1029C000740070617573696572742E2E2E00005745
:1029D00061727465206175662064656E0053746170
:1029E0007274206465730046696C616D656E7477FE
:1029F00065636873656C732E2E2E00576172746563
:102A000020617566004865726175736E61686D65F9
:102A1000006465732046696C616D656E74732E2E5B
:102A20002E0044C3BC7365206865697A74206175A3
:102A3000660062697474652077617274656E2E2E0B
:102A40002E00004B6E6F7066206472C3BC636B65B2
:102A50006E20756D0044C3BC7365206175667A7520
:102A60006865697A656E000046696C616D656E74B3
:102A70002065696E6C6567656E00756E64204B6ECF
:102A80006F7066206472C3BC636B656E00756D20E9
:102A9000666F72747A757365747A656E00576172C9
:102AA000746520617566004C6164656E20646573B1
:102AB0000046696C616D656E74732E2E2E004B6E30
:102AC0006F7066206472C3BC636B656E20756D00A9
:102AD000447275636B20666F72747A757365747A6D
:102AE000656E000057617274652061756600466FFF
:102AF00072747365747A656E2064657300447275D0
:102B0000636B732E2E2E005761727465206175669B
:102B100000456E746C6164656E206465730046697F
:102B20006C616D656E74732E2E2E0000007F430065
:102B3000007F4300007A430000FA430000FA43009C
:102B400000A0400000C8410000A0420000A04200D8
:102B500000C8430000D743F4010000F40100006402
:102B6000000000881300002062797465733B2063C5
:102B70007263200053657474696E67732053746FB9
:102B8000726564202800454550524F4D20646174A1
:102B90006173697A65206572726F722E0A00207304
:102BA000746F7265642073657474696E67732072E4
:102BB00065747269657665642028004572723A20F2
:102BC000454550524F4D2043524300202863616CCD
:102BD00063756C6174656429210A0020213D200021
:102BE000454550524F4D20435243206D69736D61EE
:102BF000746368202D202873746F72656429200027
:102C00004572723A20454550524F4D20496E6465D9
:102C10007800496E6465783A20004572723A204522
:102C20004550524F4D2056657273696F6E00204DAE
:102C300061726C696E3D563736290A00454550521F
:102C40004F4D2076657273696F6E206D69736D618B
:102C50007463682028454550524F4D3D00486172CD
:102C600064636F6465642044656661756C742053A9
:102C7000657474696E6773204C6F616465640A00E3
:102C80003B200042657374C3A4746967656E004D90
:102C9000343238005765726B7365696E7374656C96
:102CA0006C756E67656E0046696C616D656E74006B
:102CB0004A65726B0042657363686C65756E69671F
:102CC000756E6700476573636877696E6469676BE3
:102CD000656974005365747A6520486F6D65766523
:102CE000727361747A004EC3A4636873746520457F
:102CF000636B650046657274696700576569746542
:102D000072004E6976656C6C696572656E206665E9
:102D10007274696721004EC3A46368737465204BA5
:102D20006F6F7264696E617465002569202F2025BC
:102D30007500473239205631004B6C69636B207A3D
:102D4000756D205374617274656E00486F6D696EA5
:102D5000672058595A005A2D5765727400496E649D
:102D60006578205900496E64657820580045636B8A
:102D7000656E206E6976656C6C696572656E004182
:102D80007573626C656E6468C3B66865004E657481
:102D90007A206265617262656974656E004265746D
:102DA00074206E6976656C6C696572656E004CC3E3
:102DB000BC66746572001FFFFFFFFFFFFF6000002D
:102DC000000001FF400000000000FF800000000044
:102DD000007F83CF00000C303F87FF80000C301F46
:102DE000867980000C000F8C30C7838C30E78C30E4
:102DF000CFC7CC31F38C30DCECEC33B98C30D86CF1
:102E00006C33198C30D06C0C33198C30D86C0C337B
:102E1000198C30DC6C0E3B198C30CF7C079F198CE1
:102E200030C77C038F1940000000000002600000E2
:102E3000000000061FFFFFFFFFFFF81FFFFFFFFF5F
:102E4000FFFF600000000001FF400000000000FFE5
:102E50008000000000007F83CF00000C303F87FF20
:102E600080000C301F867980000C000F8C30C783E7
:102E70008C30078C30CFC7CC30038C30DCECEC309E
:102E8000018C30D86C6C30018C30D06C0C30018CE3
:102E900030D86C0C30018C30DC6C0E38018C30CFAB
:102EA0007C079C018C30C77C038C01400000000033
:102EB0000002600000000000061FFFFFFFFFFFF898
:102EC0001FFFFFFFFFFFFF600000000001FF400049
:102ED00000000000FF8000000000007F83CF0000A2
:102EE0000C003F87FF80000C001F867980000C00DB
:102EF0000F8C30C7838C00078C30CFC7CC00038C7D
:102F000030DCECEC00018C30D86C6C00018C30D0E3
:102F10006C0C00018C30D86C0C00018C30DC6C0E19
:102F200000018C30CF7C0780018C30C77C0380018E
:102F300040000000000002600000000000061FFFCB
:102F4000FFFFFFFFF81FFFFFFFFFFFFF6000000014
:102F50000001FF400000000000FF800000000000B2
:102F60007F83CF000000003F87FF800000001F86A6
:102F700079800000000F8C30C7838000078C30CF31
:102F8000C7C000038C30DCECE000018C30D86C60F2
:102F900000018C30D06C0000018C30D86C00000136
:102FA0008C30DC6C0000018C30CF7C0000018C3058
:102FB000C77C00000140000000000002600000002B
:102FC0000000061FFFFFFFFFFFF81FFFFFFFFFFFCF
:102FD000FF600000000001FF400000000000FF80D3
:102FE00000000000007F83CF000000003F87FF80CB
:102FF0000000001F8679800000000F8C30C7800021
:1030000000078C30CFC00000038C30DCE0000001F2
:103010008C30D8600000018C30D0600000018C3012
:10302000D8600000018C30DC600000018C30CF7073
:103030000000018C30C7700000014000000000005B
:1030400002600000000000061FFFFFFFFFFFF81FE7
:10305000FFFFFFFFFFFF600000000001FF400000D6
:10306000000000FF8000000000007F83CF00000010
:10307000003F87FF800000001F8679800000000F5E
:103080008C30C0000000078C30C0000000038C3082
:10309000C0000000018C30C0000000018C30C00076
:1030A0000000018C30C0000000018C30C000000026
:1030B000018C30C0000000018C30C00000000140D5
:1030C000000000000002600000000000061FFFFF7B
:1030D000FFFFFFF81FFFFFFFFFFFFF600000000082
:1030E00001FF400000000000FF8000000000007FA2
:1030F0008000000000003F8000000000001F8000F2
:10310000000000000F8000000000000780000000A9
:1031100000000380000000000001800000000000AB
:10312000018000000000000180000000000001801C
:10313000000000000001800000000000018000008D
:1031400000000001400000000000026000000000DC
:1031500000061FFFFFFFFFFFF8D4304F30CA2F4596
:103160002FC02E3B2EB62D02687474703A2F2F6D2F
:1031700061726C696E66772E6F726700322E302E28
:10318000352E34004D313030302053002020506C2B
:10319000616E6E65724275666665724279746573BA
:1031A0003A20002046726565204D656D6F72793A50
:1031B0002000436F6D70696C65643A204A756C201D
:1031C000313920323032300A00204C61737420557E
:1031D0007064617465643A20323032302D30372D9E
:1031E0003039207C20417574686F723A2028456C14
:1031F0006B6F732D5072696E74732C2064656661F9
:10320000756C74290A00322E302E352E340A004D8A
:1032100061726C696E0020536F667477617265200D
:1032200052657365740A00205761746368646F6740
:103230002052657365740A002042726F776E206FAA
:1032400075742052657365740A0020457874657240
:103250006E616C2052657365740A00506F776572F9
:1032600055700A006175746F25632E670047323709
:10327000004D31303031006572726F7220777269A3
:1032800074696E6720746F2066696C650A00446F0C
:103290006E6520736176696E672066696C652E0ABB
:1032A000004D3239002553202563202563202563F6
:1032B00020256300656E6473746F70732068697491
:1032C0003A20000000A0C000000000000000000044
:1032D00000A0420000A0420000A041020204000041
:1032E000A0400000A0400000004000008243000019
:1032F0007F4300007A43FFFFFF0000000100000051
:103300000100008000555555000000400033333364
:1033100000AAAA2A004992240000002000C7711CBC
:103320000099991900D1451700555515003BB11367
:10333000002449120011111100000010000F0F0F9E
:1033400000E3380E0043790D00CCCC0C00C3300CE8
:1033500000E8A20B0064210B00AAAA0A00703D0A33
:10336000009DD80900427B090092240900DCD308A3
:1033700000888808001042080000000800F0C1071B
:10338000008787070075500700711C07003EEB0699
:1033900000A1BC06006990060066660600703E0645
:1033A000006118060017F4050074D105005BB00534
:1033B00000B2900500627205005555050078390588
:1033C00000B81E0500050505004EEC040087D40476
:1033D00000A1BD040090A7040049920400C17D042F
:1033E00000EE690400C7560400444404005C320443
:1033F000000821040041100400000004003FF00315
:1034000000F8E0030026D20300C3C30300CCB503D9
:10341000003AA803000A9B0300388E0300C0810312
:10342000009F750300D0690300505E03001D530325
:103430000034480300913D03003333030016290391
:1034400000381F030097150300300C03000303032B
:10345000000BFA020049F10200BAE802005CE00247
:10346000002DD802002DD0020059C80200B0C002C1
:103470000031B90200DAB10200AAAA0200A0A30238
:1034800000BC9C0200FA9502005C8F0200DF8802FB
:103490000082820200457C0200277602002770022B
:1034A00000436A02007C640200D05E02003F5902C1
:1034B00000C8530200FFFDFCFAF8F6F4F2F0EEEC5F
:1034C000EAE9E7E5E3E1E0DEDCDAD9D7D5D4D2D02A
:1034D000CFCDCBCAC8C7C5C3C2C0BFBDBCBAB9B7C0
:1034E000B6B4B3B2B0AFADACAAA9A8A6A5A4A2A128
:1034F000A09E9D9C9A99989795949392908F8E8D6B
:103500008B8A8988878684838281807F7E7D7B7A8F
:10351000797877767574737271706F6E6D6C6B6A93
:10352000696867666564636261605F5E5D5C5B5A83
:103530005958585756555453525150504F4E4D4C60
:103540004B4A4A4948474646454443424241403F28
:103550003E3E3D3C3B3B3A393838373635353433DF
:1035600032323130302F2E2E2D2C2B2B2A29292888
:10357000272726252524232322212120201F1E1E24
:103580001D1C1C1B1B1A19191818171616151514B3
:10359000131312121111100F0F0E0E0D0D0C0C0B38
:1035A0000A0A0909080807070606050504040303B3
:1035B00002020100005761726E696E673A20486F1F
:1035C0006D696E672042756D702044697669736F0E
:1035D00072203C20310A004D69786572003F00413D
:1035E000626272656368656E00537461727465200F
:1035F000447275636B00447275636B656E00436162
:103600006E6E6F7420656E74657220737562646986
:10361000723A2000022E2E003A202534642E2564B2
:10362000206D6D005A20456E64653A005A2053742F
:103630006172743A00562D546F6F6C20416C696151
:103640007300562D546F6F6C20456E646500562DC7
:10365000546F6F6C20537461727400562D546F6FE9
:103660006C204D6978207369636865726E005A79C1
:103670006B6C7573204D6978004B6F6D706F6E6564
:103680006E7465207E00562D546F6F6C73206973C5
:1036900074207265736574657400556D67656B653C
:1036A00068727465204772616469656E74005425A0
:1036B000692D3E54256900562D546F6F6C7320524E
:1036C00065736574656E00416B7469766573205629
:1036D0002D546F6F6C0020746F6F206C6F6E6720BD
:1036E000657874727573696F6E2070726576656E39
:1036F0007465640A0020636F6C6420657874727569
:1037000073696F6E2070726576656E7465640A0009
:10371000220A00556E6B6E6F776E20636F6D6D6160
:103720006E643A2022007C3C3E5E2B3D3F2F5B5D69
:103730003B2C2A225C006F6F6F0000002053697AD7
:10374000653A200043616E6E6F74206F70656E2065
:10375000737562646972200053442063617264204F
:103760006F6B0A006F70656E526F6F7420666169CF
:103770006C65640A00766F6C756D652E696E697490
:10378000206661696C65640A00534420696E69743F
:10379000206661696C0A004D3234004D32332025B9
:1037A000730046696C652073656C65637465640AB3
:1037B0000046696C65206F70656E65643A2000454F
:1037C0004E4420535542524F5554494E450A00220B
:1037D00020706F73002220706172656E743A22004F
:1037E000535542524F5554494E452043414C4C206D
:1037F0007461726765743A2200747279696E672029
:10380000746F2063616C6C207375622D67636F64E5
:10381000652066696C6573207769746820746F6FC2
:10382000206D616E79206C6576656C732E204D413C
:1038300058206C6576656C2069733A310A004465DE
:103840006C6574696F6E206661696C65642C2046D6
:10385000696C653A200046696C652064656C657426
:1038600065643A0057726974696E6720746F2066E8
:10387000696C653A2000667265736800646F696EF2
:1038800067004E6F77200053442D447275636B20A0
:1038900070617573696572656E004D656469756DFB
:1038A00020656E746665726E74004D656469756D31
:1038B0002065726B616E6E7400447275636B20617B
:1038C00062676562726F6368656E00496E2042656B
:1038D000776567756E672E2E2E004D3235006F703E
:1038E000656E206661696C65642C2046696C653A7A
:1038F000200020453A00205A3A0020593A00205230
:103900000020204D363033200020204D343132202D
:10391000530046696C616D656E742072756E6F75CB
:10392000742073656E736F723A0020550046696C9F
:10393000616D656E74206C6F61642F756E6C6F6164
:1039400064206C656E677468733A0020204D3930CE
:1039500030204B004C696E65617220416476616E67
:1039600063653A0020204D343133205300506F7787
:1039700065722D4C6F7373205265636F7665727933
:103980003A0020204D33303420500020204D333079
:10399000312050005049442073657474696E677318
:1039A0003A0020460020480020204D313435205375
:1039B000004D6174657269616C2068656174757031
:1039C00020706172616D65746572733A00202047E2
:1039D0003239205720490020204D34323020530006
:1039E0004175746F20426564204C6576656C696E24
:1039F000673A0020204D323036205800486F6D6500
:103A0000206F66667365743A00204A0020204D32AC
:103A10003035204200416476616E6365643A20422D
:103A20003C6D696E5F7365676D656E745F74696D1B
:103A3000655F75733E20533C6D696E5F66656564B6
:103A4000726174653E20543C6D696E5F747261767C
:103A5000656C5F66656564726174653E204A3C6AA8
:103A6000756E635F6465763E0020540020204D3201
:103A70003034205000416363656C65726174696F16
:103A80006E2028756E6974732F7332293A20503C6A
:103A90007072696E745F616363656C3E20523C7244
:103AA0006574726163745F616363656C3E20543C4E
:103AB00074726176656C5F616363656C3E002020A3
:103AC0004D3230312058004D6178696D756D20415F
:103AD0006363656C65726174696F6E2028756E69C9
:103AE00074732F7332293A0020204D32303320581E
:103AF000004D6178696D756D2066656564726174ED
:103B000065732028756E6974732F73293A00537496
:103B10006570732070657220756E69743A0020209C
:103B20004D3230302044300A0020204D32303020D9
:103B300044002044697361626C65640A0046696CE4
:103B4000616D656E742073657474696E67733A0095
:103B500020204D3134392043203B20556E69747349
:103B600020696E2043656C736975730A0020286DA7
:103B70006D29002020473231202020203B20556E27
:103B800069747320696E206D6D00486F6D696E6792
:103B9000206765736368656974657274006F70652A
:103BA0006E005452494747455245440066696C616E
:103BB0006D656E74007A5F6D696E00795F6D696E18
:103BC00000785F6D696E005265706F7274696E6720
:103BD00020656E6473746F70207374617475730AFA
:103BE00000566F72686572202573257325732068EF
:103BF0006F6D656E002568753A2530326875002551
:103C0000303268753A253032687500202020202037
:103C10002020001FE03FF03FF03FF01FE01FE03F9B
:103C2000F03FF03FF00FC0078003001FE02010209E
:103C300010201010201020201020103030084004D8
:103C400080030001FF000618C0081F20101F9014F9
:103C50001F102E1E082F1C082FB8083FFC083FFF1E
:103C6000F8207FF8203BE82071E820F0E811F050C0
:103C700013F01009F0200630C001FF0001FF00061C
:103C800030C009F02011F01010F01020F068203141
:103C9000E82039E8207FF83FFFF83FFC082F38087C
:103CA0002E18082C1E08101E10101F10081F2006AA
:103CB00018C001FF0001FF000600C00901201783A2
:103CC000D01783D02FC7E827C7C821FF08207C085A
:103CD000207C08207C0821FF0827C7C82FC7E817C9
:103CE00083D01783D00901200600C001FF00FFFF29
:103CF000C04000202000101000080800040400024A
:103D000003FFFF02220004440004440002220001D9
:103D10001100FFFFC04088A02111101222080800E6
:103D20000404000203FFFF61757300616E004265C9
:103D3000776567756E6700426574742D4E697665A8
:103D40006C6C696572756E6700536F66747761722B
:103D5000652D456E6473746F7070004D3834004D7E
:103D60006F746F72656E206465616B7469766965E6
:103D700072656E004732385A00486F6D65205A00F0
:103D80004732385900486F6D65205900473238581E
:103D900000486F6D65205800473238004175746FD8
:103DA00020486F6D6500504C4120457874722E207C
:103DB000566F7277C3A4726D656E00504C412042FD
:103DC00065747420566F7277C3A4726D656E00506F
:103DD000455447204265747420566F7277C3A472AD
:103DE0006D656E005045544720457874722E2056FC
:103DF0006F7277C3A4726D656E0056206D696E2078
:103E00004C65657266616872740056206D696E203B
:103E10000056206D617820450056206D6178205A4B
:103E20000056206D617820590056206D6178205829
:103E30000041206D617820450041206D6178205A55
:103E40000041206D617820590041206D6178205833
:103E50000041204C656572666168727400412045BE
:103E6000696E7A7567004A756E6374696F6E204477
:103E7000657600452053746570732F6D6D005A2070
:103E800053746570732F6D6D005920537465707392
:103E90002F6D6D00582053746570732F6D6D004B3E
:103EA0006F6E6669672E206C6164656E004B6F6E85
:103EB0006669672E2073706569636865726E004578
:103EC00072772E2045696E7374656C6C756E6765CC
:103ED0006E0046494C414D454E5420454E544C4190
:103EE00044454E0046494C414D454E54204C4144BA
:103EF000454E0046494C414D454E54205745434898
:103F000053454C005374616E6461726477657274DA
:103F100065206C6164656E00504554472045696EAC
:103F20007374656C6C756E67656E00504C4120450E
:103F3000696E7374656C6C756E67656E0052756E34
:103F40006F75742D53656E736F72004D373032206C
:103F5000542564004D363030204230205425640012
:103F60004D373032203B2564004D37303120542509
:103F7000640062656E75747A65726465662E2048A9
:103F800065697A656E004D36303020423020542508
:103F9000690046696C616D656E742077656368734E
:103FA000656C6E202A00447275636B2077656974B6
:103FB0006572004D65687220656E746C6164656E33
:103FC00000464F5254532E204F5054494F4E454EA9
:103FD0003A00445255434B205041555349455254A1
:103FE00000202044C3BC73653A2000202D20496E78
:103FF00076616C6964206578747275646572206E90
:10400000756D62657220210A002008204E494348E0
:104010005420455252454943485400546865726DD6
:10402000616C2052756E6177617900200820C39C15
:1040300042455253434852495454454E004D41580D
:1040400054454D502074726967676572656400203D
:104050000820554E54455253434852495454454EF6
:10406000004D494E54454D50207472696767657222
:104070006564004D383420582059205A20450020CE
:104080002F002042403A0020403A0070012C01905D
:10409000012701B0012201C0011D01F0011801102A
:1040A00002130130020E016002090190020401C0F6
:1040B00002FF000003FA004003F5008003F000D087
:1040C00003EB002004E6007004E100E004DC0040A3
:1040D00005D700C005D2004006CD00D006C800803C
:1040E00007C3003008BE00F008B900C009B400B032
:1040F0000AAF00B00BAA00D00CA500000EA0005023
:104100000F9B00C01096005012910000148C00C04C
:10411000158700B0178200B0197D00D01B78000011
:104120001E730040206E0090226900F0246400405D
:10413000275F0090295A00E02B5500102E500020D8
:10414000304B0010324600E033410090353C001007
:1041500037370070383200A0392D00B03A2800A05F
:104160003B2300603C1E00103D1900903D140010E0
:104170003E0F00703E0A00C03E0500003F000040B8
:104180003FFBFF803FF6FFC03FF1FF504554472003
:10419000566F7277C3A4726D656E00504C41205605
:1041A0006F7277C3A4726D656E0042616279737439
:1041B0006570205A00566F72736368756266616B32
:1041C000746F720044C3BC73650048617570746D90
:1041D000656EC3BC0041626BC3BC686C656E004C0D
:1041E000C3BC66746572207E00546F74616C0046B7
:1041F0006C75737372617465004765736368772EBD
:1042000000426577656765205A00202573206D6D33
:104210000020302C312020206D6D0020312C3020EA
:1042200020206D6D0031302C302020206D6D00413C
:10423000636873656E206265776567656E00486FB9
:1042400074656E64207A75206B616C7400426577CA
:10425000656765204578747275646572004265779C
:1042600065676520590042657765676520580000DD
:10427000002100240027002A002D00300033000117
:10428000010000040107010A0100002200250028A6
:10429000002B002E0031003400020100000501084F
:1042A000010B01000020002300260029002C002F14
:1042B00000320000010000030106010901050505A7
:1042C00005070508080808020202020A0A0808048D
:1042D00004040401010101010101010303030303BB
:1042E000030303040707070C0C0C0C0C0C0C0C024A
:1042F00002020206060606060606060B0B0B0B0B51
:104300000B0B0B0102102020080810204010204049
:104310008002010201080402010102040810204089
:1043200080804020100804020180040201804020A7
:1043300010080402010804020101020408102040D0
:1043400080010204081020408000000A0B02090CC2
:104350000D0E08070304010000000000000000002B
:10436000000000000000000000000000000000004D
:10437000000000000012111000000000000000000A
:1043800000000000000000000000000000000044E9
:104390007275636B20766F6D204D656469756D0075
:1043A000447275636B2070617573696572742E2E2B
:1043B0002E00496E76616C6964206578747275644C
:1043C00065720A0020573A00476565657465636841
:1043D0002041323054206265726569740044727500
:1043E000636B742E2E2E004F46460A0046616465AC
:1043F000204865696768742000426564204C6576D2
:10440000656C696E6720004661696C656420746F35
:1044100020656E61626C6520426564204C6576653E
:104420006C696E670A00496E76616C6964206D651F
:1044300073682E0A00477269642070726F62696E39
:104440006720646F6E652E0A0069646C650A00203F
:104450006F662000706F696E7420004D616E75612B
:104460006C2047323920004D616E75616C204732F7
:10447000392061626F727465640A002028445259C1
:1044800052554E2900473239204175746F204265DC
:1044900064204C6576656C696E67003F20284C2C63
:1044A000522C462C4229206F7574206F6620626F53
:1044B000756E64732E0A003F2856296572626F7309
:1044C00065206C6576656C20696D706C61757369CB
:1044D000626C652028302D34292E0A004261642048
:1044E0005A2076616C75650A004E6F2062696C69AE
:1044F0006E65617220677269640A0020436F756E91
:104500007420583A00453100626564002C207379AC
:104510007374656D2073746F7070656421204865D5
:10452000617465725F49443A20004845495A454ED6
:10453000204552464F4C474C4F53004865617469C3
:104540006E67206661696C6564004361703A0000C3
:104550004E01100111241FBECFEFD1E2DEBFCDBF4F
:1045600000E00CBF13E0A0E0B2E0E2EAF7EE02E008
:104570000BBF02C007900D92A039B107D9F72AE10D
:10458000A0E9B3E001C01D92A832B207E1F712E240
:10459000C9EAD2E200E006C021970109802FFE019E
:1045A0000F941970C83AD10780E00807A9F70F9453
:1045B00080590D94BF730C9400002F923F924F923C
:1045C0005F926F927F928F929F92AF92BF92CF92A3
:1045D000DF92EF92FF920F931F93CF93DF93CDB7AC
:1045E000DEB7E3970FB6F894DEBF0FBECDBF8AAB40
:1045F0002091990328AB21E0209399038091211AFF
:104600008D3409F4BAC1843511F40C9465328734C1
:1046100011F00C946A32E0901F1AF090201A3AE1DF
:10462000E316F10409F4B2C0C4F494E0E916F1040D
:1046300044F4A2E0EA16F1040CF05BC0F7FE36C0C9
:1046400098C1B4E0EB16F10409F461C0E5E1EE169F
:10465000F10411F40C946C328CC1FAE2EF16F104FF
:1046600009F479C184F43CE1E316F10409F4ADC026
:104670000CF490C09DE1E916F10409F07AC10F94A1
:104680007E460C946C32ABE5EA16F10409F4ADC039
:10469000BCE5EB16F10409F4ADC0EAE5EE16F10451
:1046A00009F067C11092B4100C946C328091A50788
:1046B000813011F00C946C3288E50E946449182F07
:1046C00089E50E946449882311F082E001C080E0FE
:1046D000182B8AE50E946449882311F084E001C008
:1046E00080E0812B0F947F0781110C946C320C9425
:1046F00075328091A507813011F00C946C3287E0FF
:104700000F947F0781110C946C320C947A3280E5FF
:104710000E94AD49882329F00E94907A6B017C01A8
:1047200003C0C12CD12C760183E50E94AD498823BA
:1047300061F00E942D4920E030E04AE754E40F94F4
:1047400092690F9495716B017C010E94D3B68091A0
:104750003610811105C060E08DEE96E00E9433FCBA
:104760000F94F03CC60ED71EE81EF91E0F94F03CC5
:10477000DC01CB018C199D09AE09BF09B7FD02C050
:104780000C946C3280E00E944440F0CF0E94C74DF0
:104790000C946C3287E00F947F0781110C946C327B
:1047A0008CE0EBEAF2E0DE01119601900D928A9521
:1047B000E1F760E070E080E50E945478BE016F5F31
:1047C0007F4F0E94ABF70C946C328091AB078770DF
:1047D000873011F00C94D33360E08FE40E94C94914
:1047E00081110C946C320C94D3338FE08093B4100D
:1047F0000C946C3280911E1A882349F1893009F09B
:10480000A6C047EBA42E42E0B42E53E6E52E52E0BC
:10481000F52ED12C00E010E0D5018D915D010E94B4
:10482000AD49882369F00E942D49F70160837183A7
:1048300082839383133011F401E002C0DD24D3940A
:104840001F5FF4E0EF0EF11C143031F775C097EBE9
:10485000292E92E0392E28EDE22E20E1F22E23E6D9
:1048600032E03DA32CA336EEC32E33E1D32E00E07D
:1048700010E0D1018D911D010E94AD49882309F4FA
:104880004BC00E942D492B013C01133049F0F60129
:1048900020813181428153810F9421702B013C0191
:1048A000ACA1BDA12D913D914D915C91C301B2018F
:1048B0000F9421704B015C012DEB37E346E855EB7B
:1048C0000F94827287FD0AC02DEB37E346E855E36B
:1048D000C501B4010F942C691816F4F4133051F487
:1048E00040926F0250927002609271027092720256
:1048F00001E012C0A5019401F701608171818281FC
:1049000093810F942270D7016D937D938D939C9327
:104910001397812F0E9459BC1F5FB4E0EB0EF11C6E
:10492000ECA1FDA13496FDA3ECA3F4E0CF0ED11CC5
:10493000143009F09ECF05C0DD2019F00F944E0D04
:1049400006C0002321F08FE692E00E9480BA0F9407
:10495000500D0C946C328091A507813011F00C94AD
:104960006C3287E00F947F0781110C946C320C94A9
:10497000B1350E9426D90C946C3280911F1A909107
:10498000201A8837910509F49FC70CF064C18E3452
:10499000910509F448C40CF067C08A31910509F407
:1049A00058C39CF58431910509F4CCC27CF4813163
:1049B000910509F4B3C22CF4029708F477C20C9461
:1049C0006232429709F452C60C94623287319105E3
:1049D00009F4DDC28CF48531910509F4D4C24697FF
:1049E00011F00C9462320E9412EE8091B914877F0C
:1049F0008093B9140C946C328831910509F4DCC2AF
:104A0000499709F414C30C9462328F31910509F46B
:104A1000C9C37CF48C31910509F47CC30CF427C321
:104A20008D31910509F47EC34E9709F482C30C942D
:104A300062328B34910509F4EEC34CF48032910557
:104A400009F487C38A9709F4CDC30C9462328C347D
:104A5000910509F4E4C38D34910511F00C94623290
:104A60000E9465B50C946C328C36910509F478C5BA
:104A70000CF050C08535910509F424C694F58235B3
:104A8000910509F4E5C51CF58135910511F00C94EB
:104A900062320F940D320E9465B50E94E4B60E9406
:104AA000DA3C83E0EAE9F3E0DF011D928A95E9F759
:104AB00068EE73E080E090E00E944E3C0E94043D6E
:104AC00060E08FE998E00E9433FC0C946C328335EF
:104AD000910509F4C4C58435910509F4C7C50C9442
:104AE00062328936910509F49CC454F48C359105E1
:104AF00009F40BC68836910509F427C40C94623278
:104B00008A36910509F4A1C48B36910509F4C1C414
:104B10000C9462328137910509F427C5B4F48E36BE
:104B2000910509F4C5C40CF42EC48F36910509F41F
:104B3000D2C48037910511F00C94623241E060E0FC
:104B400070E08DE698E00E94813D8537910509F47B
:104B50006FC60CF073C08237910509F462C68337C3
:104B6000910511F00C94623286ED99E00E944B3D64
:104B700060E086EC99E00F94815860E081EB99E069
:104B80000F94815861E08AEA99E00F94815861E0BE
:104B90008FE999E00F94815861E08FE899E00F94D4
:104BA000815860E086E899E00F94815861E08CE7D5
:104BB00099E00F94815860E082E799E00F94815862
:104BC00060E08AE699E00F94815861E08CE599E015
:104BD0000F94815860E08EE499E00F94815860E072
:104BE0008FE399E00F94815860E081E399E00F949E
:104BF000815860E08BE199E00F94815860E08AE091
:104C000099E00F94815860E08BEF98E00F94815801
:104C100060E086EE98E00F94815861E083ED98E0C3
:104C20000F94815860E086EC98E00F94815860E022
:104C300082EB98E00F9481580C946C328637910582
:104C400009F406C68737910511F00C9462320F946F
:104C5000D50D0C946C328E3221E0920711F40C9435
:104C600007300CF078C08B3C910509F437C7ECF5A0
:104C7000833A910509F48AC6E4F48C38910509F465
:104C800096C46CF48937910511F00C94623210923D
:104C9000100610920F060F943B0E0C946C32813963
:104CA000910509F418C68B39910509F4ABC40C942D
:104CB00062328E3B910509F493C46CF4843A9105F9
:104CC00009F48CC6863A910511F00C9462320E9468
:104CD00067780C946C32883C910509F492C6893C43
:104CE000910509F4D8C60C9462328C3D910509F403
:104CF0006AC79CF48D3C910509F443C70CF40DC7B9
:104D00008E3C910509F440C7833D910511F00C9448
:104D100062320E9466790C946C328232A1E09A076A
:104D200011F40C94AC2E54F48D3D910509F472C726
:104D3000823E910509F4C4C70C9462328C32E1E0E2
:104D40009E0711F40C94FF2E8D32914011F40C94B7
:104D5000142F0C946232853F21E0920711F40C94D9
:104D60001F310CF044C08C39A1E09A0711F40C9467
:104D70005130C4F48033E1E09E0711F40C94942F79
:104D800014F40C944B30803921E0920711F40C9408
:104D90004E308A39914011F00C9462320E94B63C38
:104DA0000C946C32853AA1E09A0711F40C945730B8
:104DB0007CF48D39E1E09E0711F40C942E32843A94
:104DC000914011F00C9462320F943D4C0C946C3273
:104DD0008C3A21E0920711F40C94C030843F91404A
:104DE00011F00C9462320E94CDA30C946C328B357E
:104DF000A2E09A0711F40C943E315CF5883FE1E0A3
:104E00009E0711F40C942531ACF4863F21E0920703
:104E100011F40C942231873F914011F00C946232CE
:104E200061E083E50E94C94991E089270F94540EFF
:104E30000C946C328C30A2E09A0711F40C94363149
:104E40008835924011F00C9462320E9437740C94B1
:104E50006C32873EE3E09E0711F40C942032CCF4D0
:104E6000843823E0920711F40C94B731803A9340D0
:104E700011F00C94623220911C1A30911D1A9091FD
:104E8000B91492609093B914C9010E944CEF0C942C
:104E90006C32883EA3E09A0711F40C944532893EA7
:104EA000934011F40C9448320C94623280E50E94D5
:104EB000AD49882329F00E94907A6B017C0103C0E0
:104EC000C12CD12C760183E50E94AD49882361F085
:104ED0000E942D4920E030E04AE754E40F949269A3
:104EE0000F9495716B017C010E94D3B680911C1ABE
:104EF00090911D1A009721F061E00E94ADFC05C061
:104F000060E08AE597E00E9433FC40E0C701B6010B
:104F10000E94AE450F948E400C946C328091181A0A
:104F200084FF02C00C944C3680911A1A87FF02C08D
:104F30000C944C3680911B1A837011F00C944C36F3
:104F40000C94643683E997E00E944B3D88ED94E130
:104F50000E94FCE08BE1E8EDF4E1DE0111960190A6
:104F60000D928A95E1F760E070E0CE0101960E9413
:104F7000AEF3CE0101960E94FE4984E897E00E94BC
:104F80004B3D0C946C320E9423F20C946C32E091F5
:104F90001C1AF0911D1A8081882329F0803209F4AF
:104FA00010823196F8CF60E080911C1A90911D1A02
:104FB0000E949AEF0C946C3283E50E94AD498823DD
:104FC00021F00E94F5480E94846584E50E94AD4965
:104FD0008823A9F00E94F5486B017C010E940BA870
:104FE000C092B407D092B507E092B607F092B70727
:104FF000CD28CE28CF2819F081E080936D190E942A
:10500000E03C882381F00E9423EE0E9409B582E4EF
:1050100091E10E94C8ED10928604109287041092CC
:105020008804109289040F948E400C946C32809105
:10503000B91482FF03C08B7F8093B91480919117BC
:1050400081110F94A6060E9426A80F948E400C94FE
:105050006C328091B91483FD02C00C946C3283E5EC
:105060000E94AD4981110C946F360C946C3283E42C
:105070000E946449882319F18EEA97E00E944B3D13
:1050800080911F16882391F0BE016F5F7F4F8CE1E6
:1050900096E10E94C8E08E010F5F1F4FF8018191D9
:1050A0008F01882339F00E94443DF8CF84EA97E0CD
:1050B0000E944B3D8AE00E94443D0C946C328091EA
:1050C000B91482FF21C08DEB97E00E944B3D6091A7
:1050D000B5147091B6148091B7149091B8144AE049
:1050E0000E94583E8FE20E94443D6091B11470913D
:1050F000B2148091B3149091B4144AE00E94583EC7
:105100000E941D400C946C328FEC97E00E944B3D46
:105110000C946C3280911C1A90911D1A0E944CEFD5
:105120000C946C328091B9148E7F8093B9140C94D6
:105130006C328091B91483FD02C00C946C320E94D1
:105140000FD980911C1A90911D1A0E9438F30C946B
:105150006C328091B91482FD0E94D3B68091B9144B
:1051600083FD02C00C946C3260E080E50E94C94966
:10517000182F682F80911C1A90911D1A0E949AEF87
:1051800083E50E94AD49882321F00E94F5480E94E2
:1051900084650E9423EE11110C946C320E9409B5B3
:1051A0000C946C320E94D7A76C8F7D8F8E8F9F8F4F
:1051B000BE016F5F7F4FCE014C960E94A56460E0F8
:1051C000CE0101960E94ADFC0E947D3DBE016F5F45
:1051D0007F4F80EE97E00E94663D8AE00E94443D4A
:1051E0000C946C3266E070E080E50E94BA498C0154
:1051F00097FF02C00C946C32E82E60E089E40E94B4
:10520000C94981110C947436802F0F945B59811118
:1052100074C50C9474360E9409B50C946C320E94CB
:1052200026A80C946C3260E070E083E50E94BA49D5
:105230008E34910531F40E94D6B50F948E400C94B3
:105240006C3285E598E00E944B3D6091FF057091BE
:1052500000068CE498E00E94D63E609101067091B1
:1052600002068FE398E00E94D63E6091FF057091A0
:1052700000068091010690910206681B790B8091CF
:105280006D19815021E030E0823010F020E030E0F4
:10529000621B730B84E398E00E94D63E8AE00E9472
:1052A000443D85E598E00E944B3D80910306909136
:1052B0000406A0910506B09106068C8F9D8FAE8FD7
:1052C000BF8FBE016F5F7F4FCE014C960E94A564D9
:1052D000BE016F5F7F4F87E298E00E94663D80913C
:1052E000070690910806A0910906B0910A068C8FD6
:1052F0009D8FAE8FBF8FBE016F5F7F4FCE014C96EB
:105300000E94A564BE016F5F7F4F87E198E00E9415
:10531000663D20E030E04AE754E460910B0670916E
:105320000C0680910D0690910E060F941C71AB0136
:10533000BC018FEF97E00E940C408DE60E94443D37
:105340008AE00E94443D0C946C3280913A0F83FFB6
:1053500002C00C946C3283E50E94AD49882379F039
:105360000E942D490F948E71CB010F943E2E0F9405
:105370003362811104C00E9465B50F948E400F9472
:105380001A5F0C946C3280913A0F83FF02C00C9428
:105390006C3283E50E94AD49082F811106C082E579
:1053A0000E94AD49182F882381F10E942D490F9446
:1053B0008E71CB010F943E2E0F943362882311F42B
:1053C0000C94BD360E9409B56091D7137091D81323
:1053D000072E000C880B990B0F9433696B017C012D
:1053E0008090D3139090D413A090D513B090D6137F
:1053F000A50194010F948272181614F40C94DD36F2
:10540000002311F40C94C33611E00F941A5F11239A
:1054100011F40C946C3260E0802F0F94B1400C9426
:105420006C320E941872182F87FD0AC082EB90E13F
:105430000E944B3D812F0F944E2E8AE00E94443DE6
:1054400088A9809399030C940D3860E080E50F944F
:105450007246182F833010F00C946C3281E40E9455
:105460006449882321F06091B91070E002C06FEFA9
:1054700070E083E50E945478E12FF0E0E754FF4E9E
:105480008F3F910519F010F08FEF90E080830C941E
:105490006C3260E080E50F947246833010F00C941B
:1054A0006C32E82FF0E0E754FF4E10820C946C321F
:1054B0008EE40E94AD49882311F40C946C320E9452
:1054C000F54860930E0570930F0580931005909337
:1054D00011050C946C3283E50E946449882331F0F5
:1054E00060E083E50F94724680933A0F0E947D3D01
:1054F00086E698E00E944B3D80913A0F882369F13F
:105500008CEFE82E8BE0F82E00E010E020E0809198
:105510003A0F90E0A0E0B0E0002E04C0B695A79549
:10552000979587950A94D2F780FF0EC0DD24D39417
:10553000D20E222319F08CE20E94443DF70185919E
:1055400094910E944B3D2D2D0F5F1F4F92E0E90E6D
:10555000F11C05301105D9F6ADCD82E698E0A8CD55
:1055600010928C1010929F02B7C783E50E94AD493C
:10557000882371F00E940549282F30E02D33310532
:105580001CF480930002A8C78CE380930002A4C798
:105590000E947D3D4091000250E060E070E08BE7AA
:1055A00098E00E94C53E8AE00E94443D95C78091E4
:1055B0003A0F83FD91C783E50E94AD49882339F0F6
:1055C0000E942D490F948E71CB010E94E0480F94E8
:1055D0003362811181C70E9465B50F948E407CC7EC
:1055E00080913A0F83FD78C783E50E94AD49182F5B
:1055F00081110C94E03682E50E94AD4981110C9432
:10560000E0366AC783E50E94AD49882309F464C780
:105610000E940549182F90E0CD970CF01CE31093E1
:1056200094030F94F03C6B017C01212F30E0A8EE35
:10563000B3E00F94D66FC60ED71EE81EF91EC092B7
:105640009003D0929103E0929203F092930344C7A7
:105650008091B4108F7D80618093B4103DC780919C
:10566000B4108F7E80628093B41036C783E50E94A9
:10567000AD49882399F00E942D4920E030E04AE7A7
:1056800054E40F9492690F949571609301027093A2
:10569000020280930302909304021EC78091181A9D
:1056A00084FF02C00C940F3780911A1A87FF02C042
:1056B0000C940F3780911B1A837011F00C940F37E4
:1056C0000C943B3783E50E946449882309F404C79E
:1056D0000F94F03C60931A1970931B1980931C1956
:1056E00090931D190E942D4920E030E04AE754E4D0
:1056F0000F9492690F94957160939503709396033C
:105700008093970390939803E7C60E94187287FDD1
:10571000E3C69091181A94FD04C090911A1A97FF4D
:105720000AC017EBC12E12E0D12E0BE3E02E0FE0E2
:10573000F02E10E009C090911B1A937091F7682F1A
:1057400081E00E94557AC8C6F60181916F010E94DE
:10575000AD49882309F45BC0133009F04FC00E94A3
:105760002D494B015C0120E030E040EA51E40F9408
:105770002C6987FF3AC0A501940160915B0F70917D
:105780005C0F80915D0F90915E0F0F941C712B0147
:105790003C019B01AC0160916B0F70916C0F80918B
:1057A0006D0F90916E0F0F94926960936B0F7093D1
:1057B0006C0F80936D0F90936E0F6091EF07709157
:1057C000F0078091F1079091F2070F943169A301DE
:1057D00092010F9492690F9495716093EF07709303
:1057E000F0078093F1079093F20780925B0F9092FD
:1057F0005C0FA0925D0FB0925E0F09C00E942D4910
:10580000D70154966D937D938D939C9357971F5F0B
:10581000B4E0EB0EF11C143009F096CF0E94AFB645
:105820005BC60F944B008EE394E10F94B45254C6C0
:1058300080911C1A90911D1A009709F4F4CBFC0179
:105840002081222309F4EFCB60E00E94ADFC44C626
:1058500000911C1A10911D1A94E0F12C40E0915017
:1058600031F1D8018C91282F2B7F213429F4119606
:105870002C912133E1F408C08035C9F4F80181810D
:1058800080538A3048F013C0813421F0853421F4EC
:1058900041E002C0FF24F39498012E5F3F4F89013D
:1058A0002F5F3F4FD8018C918032C9F3D8CF41117F
:1058B0000E947D3DFF2021F081EA9AE00E944B3D4D
:1058C000C8010E94234008C62093100620930F06AB
:1058D0000F943B0E01C660E070E083E50E94BA4978
:1058E0008C011127023011053CF00E94793D85EAB8
:1058F0009AE00E944B3DF0C588E40E94AD498823A0
:10590000A9F00E9429498A3A91053CF08530B1E01E
:105910009B072CF084E091E002C08AEA90E0F80155
:10592000EE0FFF1FE859F74E9183808386E40E94B3
:10593000AD49882381F00E94294997FD07C08F3F18
:10594000910529F024F08FEF90E001C080E0F8018C
:10595000E059F74E808382E40E94AD49882309F420
:10596000BBC50E9429498530910534F08D389105D9
:105970002CF08CE890E002C085E090E0F801EE0F9A
:10598000FF1FE459F74E91838083A6C560E070E065
:1059900083E50E94BA498C0103970CF09DC540E055
:1059A00050E0BA0180E50E94195F6B017C0111276C
:1059B00020E030E0A9010F94827218161CF0C12C6F
:1059C000D12C7601000F111F000F111FF801ED5EA1
:1059D000F94FC082D182E282F3827EC56FEF7FEF02
:1059E00083E50E94BA4997FD07C0803191050CF00C
:1059F00073C50E940F4D70C5809142080E940F4DE3
:105A00006BC50E941872182F87FD66C584E40E943A
:105A100064498823E9F10E942D496B017C0101E072
:105A200020E030E0A9010F942C69811101C000E051
:105A30000093D71020E030E0A901C701B6010F9410
:105A40002C69882329F124E01202F0011124ED527F
:105A5000FF4EC082D182E282F38220E030E0A901D1
:105A60006091D3107091D4108091D5109091D61080
:105A70000F942C6981110CC080E090E0A0EEBFE390
:105A80008093D3109093D410A093D510B093D610D8
:105A90000E94E7B321C50E94187287FD1DC567EB00
:105AA000E62E62E0F62E0BE31FE0D7018D917D011B
:105AB0000E946449882359F00E942D490F949571E2
:105AC000F80160837183828393830E9438B60C5FF0
:105AD0001F4FFFE00B341F0741F7FEC40E941872EE
